{"abi":[{"type":"constructor","inputs":[{"name":"initialSupply","type":"uint256","internalType":"uint256"}],"stateMutability":"nonpayable"},{"type":"function","name":"allowance","inputs":[{"name":"owner","type":"address","internalType":"address"},{"name":"spender","type":"address","internalType":"address"}],"outputs":[{"name":"","type":"uint256","internalType":"uint256"}],"stateMutability":"view"},{"type":"function","name":"approve","inputs":[{"name":"spender","type":"address","internalType":"address"},{"name":"value","type":"uint256","internalType":"uint256"}],"outputs":[{"name":"","type":"bool","internalType":"bool"}],"stateMutability":"nonpayable"},{"type":"function","name":"balanceOf","inputs":[{"name":"account","type":"address","internalType":"address"}],"outputs":[{"name":"","type":"uint256","internalType":"uint256"}],"stateMutability":"view"},{"type":"function","name":"buyTokens","inputs":[],"outputs":[],"stateMutability":"payable"},{"type":"function","name":"decimals","inputs":[],"outputs":[{"name":"","type":"uint8","internalType":"uint8"}],"stateMutability":"view"},{"type":"function","name":"mint","inputs":[{"name":"to","type":"address","internalType":"address"},{"name":"amount","type":"uint256","internalType":"uint256"}],"outputs":[],"stateMutability":"nonpayable"},{"type":"function","name":"name","inputs":[],"outputs":[{"name":"","type":"string","internalType":"string"}],"stateMutability":"view"},{"type":"function","name":"owner","inputs":[],"outputs":[{"name":"","type":"address","internalType":"address"}],"stateMutability":"view"},{"type":"function","name":"renounceOwnership","inputs":[],"outputs":[],"stateMutability":"nonpayable"},{"type":"function","name":"symbol","inputs":[],"outputs":[{"name":"","type":"string","internalType":"string"}],"stateMutability":"view"},{"type":"function","name":"tokenPrice","inputs":[],"outputs":[{"name":"","type":"uint256","internalType":"uint256"}],"stateMutability":"view"},{"type":"function","name":"totalSupply","inputs":[],"outputs":[{"name":"","type":"uint256","internalType":"uint256"}],"stateMutability":"view"},{"type":"function","name":"transfer","inputs":[{"name":"to","type":"address","internalType":"address"},{"name":"value","type":"uint256","internalType":"uint256"}],"outputs":[{"name":"","type":"bool","internalType":"bool"}],"stateMutability":"nonpayable"},{"type":"function","name":"transferFrom","inputs":[{"name":"from","type":"address","internalType":"address"},{"name":"to","type":"address","internalType":"address"},{"name":"value","type":"uint256","internalType":"uint256"}],"outputs":[{"name":"","type":"bool","internalType":"bool"}],"stateMutability":"nonpayable"},{"type":"function","name":"transferOwnership","inputs":[{"name":"newOwner","type":"address","internalType":"address"}],"outputs":[],"stateMutability":"nonpayable"},{"type":"function","name":"updateTokenPrice","inputs":[{"name":"newPrice","type":"uint256","internalType":"uint256"}],"outputs":[],"stateMutability":"nonpayable"},{"type":"function","name":"withdrawEth","inputs":[{"name":"to","type":"address","internalType":"address payable"},{"name":"amount","type":"uint256","internalType":"uint256"}],"outputs":[],"stateMutability":"nonpayable"},{"type":"event","name":"Approval","inputs":[{"name":"owner","type":"address","indexed":true,"internalType":"address"},{"name":"spender","type":"address","indexed":true,"internalType":"address"},{"name":"value","type":"uint256","indexed":false,"internalType":"uint256"}],"anonymous":false},{"type":"event","name":"OwnershipTransferred","inputs":[{"name":"previousOwner","type":"address","indexed":true,"internalType":"address"},{"name":"newOwner","type":"address","indexed":true,"internalType":"address"}],"anonymous":false},{"type":"event","name":"TokensBought","inputs":[{"name":"buyer","type":"address","indexed":true,"internalType":"address"},{"name":"amount","type":"uint256","indexed":false,"internalType":"uint256"}],"anonymous":false},{"type":"event","name":"Transfer","inputs":[{"name":"from","type":"address","indexed":true,"internalType":"address"},{"name":"to","type":"address","indexed":true,"internalType":"address"},{"name":"value","type":"uint256","indexed":false,"internalType":"uint256"}],"anonymous":false},{"type":"error","name":"ERC20InsufficientAllowance","inputs":[{"name":"spender","type":"address","internalType":"address"},{"name":"allowance","type":"uint256","internalType":"uint256"},{"name":"needed","type":"uint256","internalType":"uint256"}]},{"type":"error","name":"ERC20InsufficientBalance","inputs":[{"name":"sender","type":"address","internalType":"address"},{"name":"balance","type":"uint256","internalType":"uint256"},{"name":"needed","type":"uint256","internalType":"uint256"}]},{"type":"error","name":"ERC20InvalidApprover","inputs":[{"name":"approver","type":"address","internalType":"address"}]},{"type":"error","name":"ERC20InvalidReceiver","inputs":[{"name":"receiver","type":"address","internalType":"address"}]},{"type":"error","name":"ERC20InvalidSender","inputs":[{"name":"sender","type":"address","internalType":"address"}]},{"type":"error","name":"ERC20InvalidSpender","inputs":[{"name":"spender","type":"address","internalType":"address"}]},{"type":"error","name":"OwnableInvalidOwner","inputs":[{"name":"owner","type":"address","internalType":"address"}]},{"type":"error","name":"OwnableUnauthorizedAccount","inputs":[{"name":"account","type":"address","internalType":"address"}]}],"bytecode":{"object":"0x60806040523461002f576100196100146100e0565b61029a565b610021610034565b6115d1610a1182396115d190f35b61003a565b60405190565b5f80fd5b601f801991011690565b634e487b7160e01b5f52604160045260245ffd5b906100669061003e565b810190811060018060401b0382111761007e57604052565b610048565b9061009661008f610034565b928361005c565b565b5f80fd5b90565b6100a88161009c565b036100af57565b5f80fd5b905051906100c08261009f565b565b906020828203126100db576100d8915f016100b3565b90565b610098565b6100fe611fe2803803806100f381610083565b9283398101906100c2565b90565b60018060401b03811161011d5761011960209161003e565b0190565b610048565b9061013461012f83610101565b610083565b918252565b5f7f436f666665655377617020546f6b656e00000000000000000000000000000000910152565b61016a6010610122565b9061017760208301610139565b565b610181610160565b90565b5f7f4353540000000000000000000000000000000000000000000000000000000000910152565b6101b56003610122565b906101c260208301610184565b565b6101cc6101ab565b90565b5f1b90565b906101e05f19916101cf565b9181191691161790565b90565b90565b6102046101ff610209926101ea565b6101ed565b61009c565b90565b90565b9061022461021f61022b926101f0565b61020c565b82546101d4565b9055565b60ff1690565b634e487b7160e01b5f52601160045260245ffd5b6102529061022f565b604d811161026057600a0a90565b610235565b61027461027a9193929361009c565b9261009c565b9161028683820261009c565b92818404149015171561029557565b610235565b6102ea906102b8336102aa610179565b6102b26101c4565b91610350565b6102c9659184e72a0000600661020f565b6102e433916102de6102d9610635565b610249565b90610265565b9061064b565b565b90565b60018060a01b031690565b61030e610309610313926102ec565b6101ed565b6102ef565b90565b61031f906102fa565b90565b61032b906102ef565b90565b61033790610322565b9052565b919061034e905f6020850194019061032e565b565b9161035a916105fa565b8061037561036f61036a5f610316565b610322565b91610322565b146103855761038390610751565b565b6103a86103915f610316565b5f918291631e4fbdf760e01b83526004830161033b565b0390fd5b5190565b634e487b7160e01b5f52602260045260245ffd5b90600160028304921680156103e4575b60208310146103df57565b6103b0565b91607f16916103d4565b5f5260205f2090565b601f602091010490565b1b90565b9190600861042091029161041a5f1984610401565b92610401565b9181191691161790565b61043e6104396104439261009c565b6101ed565b61009c565b90565b919061045c6104576104649361042a565b61020c565b908354610405565b9055565b5f90565b61047e91610478610468565b91610446565b565b5b81811061048c575050565b806104995f60019361046c565b01610481565b9190601f81116104af575b505050565b6104bb6104e0936103ee565b9060206104c7846103f7565b830193106104e8575b6104d9906103f7565b0190610480565b5f80806104aa565b91506104d9819290506104d0565b1c90565b9061050a905f19906008026104f6565b191690565b81610519916104fa565b906002021790565b9061052b816103ac565b9060018060401b0382116105e95761054d8261054785546103c4565b8561049f565b602090601f831160011461058157918091610570935f92610575575b505061050f565b90555b565b90915001515f80610569565b601f19831691610590856103ee565b925f5b8181106105d1575091600293918560019694106105b7575b50505002019055610573565b6105c7910151601f8416906104fa565b90555f80806105ab565b91936020600181928787015181550195019201610593565b610048565b906105f891610521565b565b906106096106109260036105ee565b60046105ee565b565b5f90565b90565b61062d61062861063292610616565b6101ed565b61022f565b90565b61063d610612565b506106486012610619565b90565b8061066661066061065b5f610316565b610322565b91610322565b1461068257610680916106785f610316565b9190916108a1565b565b6106a561068e5f610316565b5f91829163ec442f0560e01b83526004830161033b565b0390fd5b5f1c90565b60018060a01b031690565b6106c56106ca916106a9565b6106ae565b90565b6106d790546106b9565b90565b906106eb60018060a01b03916101cf565b9181191691161790565b61070961070461070e926102ef565b6101ed565b6102ef565b90565b61071a906106f5565b90565b61072690610711565b90565b90565b9061074161073c6107489261071d565b610729565b82546106da565b9055565b5f0190565b61075b60056106cd565b61076682600561072c565b9061079a6107947f8be0079c531659141344cd1fd0a4f28419497f9722a3daafe3b4186f6b6457e09361071d565b9161071d565b916107a3610034565b806107ad8161074c565b0390a3565b906107bc9061071d565b5f5260205260405f2090565b90565b6107d76107dc916106a9565b6107c8565b90565b6107e990546107cb565b90565b6107f59061009c565b9052565b604090610822610829949695939661081860608401985f85019061032e565b60208301906107ec565b01906107ec565b565b90610836910361009c565b90565b9061084e6108496108559261042a565b61020c565b82546101d4565b9055565b61086861086e9193929361009c565b9261009c565b820180921161087957565b610235565b90610889910161009c565b90565b919061089f905f602085019401906107ec565b565b919091806108bf6108b96108b45f610316565b610322565b91610322565b145f146109a0576108e36108dc836108d760026107df565b610859565b6002610839565b5b826108ff6108f96108f45f610316565b610322565b91610322565b145f146109745761092361091c8361091760026107df565b61082b565b6002610839565b5b91909161096f61095d6109577fddf252ad1be2c89b69c2b068fc378daa952ba7f163c4a11628f55a4df523b3ef9361071d565b9361071d565b93610966610034565b9182918261088c565b0390a3565b61099b826109956109865f87906107b2565b91610990836107df565b61087e565b90610839565b610924565b6109b36109ae5f83906107b2565b6107df565b806109c66109c08561009c565b9161009c565b106109ee576109d96109e991849061082b565b6109e45f84906107b2565b610839565b6108e4565b90610a0c9091925f93849363391434e360e21b8552600485016107f9565b0390fdfe60806040526004361015610013575b61078f565b61001d5f3561012c565b806306fdde0314610127578063095ea7b31461012257806318160ddd1461011d5780631b9a91a41461011857806323b872dd14610113578063313ce5671461010e57806340c10f1914610109578063676c0d771461010457806370a08231146100ff578063715018a6146100fa5780637ff9b596146100f55780638da5cb5b146100f057806395d89b41146100eb578063a9059cbb146100e6578063d0febe4c146100e1578063dd62ed3e146100dc5763f2fde38b0361000e5761075c565b610726565b6106d0565b61069a565b610665565b610630565b6105d9565b61056a565b610535565b6104e4565b610492565b61045d565b6103ff565b610391565b6102fb565b6102a3565b6101ba565b60e01c90565b60405190565b5f80fd5b5f80fd5b5f91031261014a57565b61013c565b5190565b60209181520190565b90825f9392825e0152565b601f801991011690565b61019061019960209361019e936101878161014f565b93848093610153565b9586910161015c565b610167565b0190565b6101b79160208201915f818403910152610171565b90565b346101ea576101ca366004610140565b6101e66101d56108ec565b6101dd610132565b918291826101a2565b0390f35b610138565b60018060a01b031690565b610203906101ef565b90565b61020f816101fa565b0361021657565b5f80fd5b9050359061022782610206565b565b90565b61023581610229565b0361023c57565b5f80fd5b9050359061024d8261022c565b565b9190604083820312610277578061026b610274925f860161021a565b93602001610240565b90565b61013c565b151590565b61028a9061027c565b9052565b91906102a1905f60208501940190610281565b565b346102d4576102d06102bf6102b936600461024f565b90610906565b6102c7610132565b9182918261028e565b0390f35b610138565b6102e290610229565b9052565b91906102f9905f602085019401906102d9565b565b3461032b5761030b366004610140565b610327610316610952565b61031e610132565b918291826102e6565b0390f35b610138565b610339906101ef565b90565b61034581610330565b0361034c57565b5f80fd5b9050359061035d8261033c565b565b9190604083820312610387578061037b610384925f8601610350565b93602001610240565b90565b61013c565b5f0190565b346103c0576103aa6103a436600461035f565b90610aa3565b6103b2610132565b806103bc8161038c565b0390f35b610138565b90916060828403126103fa576103f76103e0845f850161021a565b936103ee816020860161021a565b93604001610240565b90565b61013c565b346104305761042c61041b6104153660046103c5565b91610aaf565b610423610132565b9182918261028e565b0390f35b610138565b60ff1690565b61044490610435565b9052565b919061045b905f6020850194019061043b565b565b3461048d5761046d366004610140565b610489610478610b01565b610480610132565b91829182610448565b0390f35b610138565b346104c1576104ab6104a536600461024f565b90610bb7565b6104b3610132565b806104bd8161038c565b0390f35b610138565b906020828203126104df576104dc915f01610240565b90565b61013c565b34610512576104fc6104f73660046104c6565b610cfa565b610504610132565b8061050e8161038c565b0390f35b610138565b906020828203126105305761052d915f0161021a565b90565b61013c565b346105655761056161055061054b366004610517565b610d27565b610558610132565b918291826102e6565b0390f35b610138565b346105985761057a366004610140565b610582610d92565b61058a610132565b806105948161038c565b0390f35b610138565b1c90565b90565b6105b49060086105b9930261059d565b6105a1565b90565b906105c791546105a4565b90565b6105d660065f906105bc565b90565b34610609576105e9366004610140565b6106056105f46105ca565b6105fc610132565b918291826102e6565b0390f35b610138565b610617906101fa565b9052565b919061062e905f6020850194019061060e565b565b3461066057610640366004610140565b61065c61064b610dcc565b610653610132565b9182918261061b565b0390f35b610138565b3461069557610675366004610140565b610691610680610de2565b610688610132565b918291826101a2565b0390f35b610138565b346106cb576106c76106b66106b036600461024f565b90610df8565b6106be610132565b9182918261028e565b0390f35b610138565b6106db366004610140565b6106e3610ed2565b6106eb610132565b806106f58161038c565b0390f35b9190604083820312610721578061071561071e925f860161021a565b9360200161021a565b90565b61013c565b346107575761075361074261073c3660046106f9565b90610f81565b61074a610132565b918291826102e6565b0390f35b610138565b3461078a5761077461076f366004610517565b61100e565b61077c610132565b806107868161038c565b0390f35b610138565b5f80fd5b606090565b634e487b7160e01b5f52602260045260245ffd5b90600160028304921680156107cc575b60208310146107c757565b610798565b91607f16916107bc565b60209181520190565b5f5260205f2090565b905f92918054906108026107fb836107ac565b80946107d6565b916001811690815f14610859575060011461081d575b505050565b61082a91929394506107df565b915f925b81841061084157505001905f8080610818565b6001816020929593955484860152019101929061082e565b92949550505060ff19168252151560200201905f8080610818565b9061087e916107e8565b90565b634e487b7160e01b5f52604160045260245ffd5b9061089f90610167565b810190811067ffffffffffffffff8211176108b957604052565b610881565b906108de6108d7926108ce610132565b93848092610874565b0383610895565b565b6108e9906108be565b90565b6108f4610793565b506108ff60036108e0565b90565b5f90565b61092391610912610902565b5061091b611019565b919091611026565b600190565b5f90565b5f1c90565b61093d6109429161092c565b6105a1565b90565b61094f9054610931565b90565b61095a610928565b506109656002610945565b90565b9061097a91610975611036565b610a51565b565b90565b61099361098e610998926101ef565b61097c565b6101ef565b90565b6109a49061097f565b90565b6109b09061099b565b90565b5f7f496e73756666696369656e742062616c616e6365000000000000000000000000910152565b6109e76014602092610153565b6109f0816109b3565b0190565b610a099060208101905f8183039101526109da565b90565b15610a1357565b610a1b610132565b62461bcd60e51b815280610a31600482016109f4565b0390fd5b610a3e9061099b565b90565b610a49610132565b3d5f823e3d90fd5b5f808093610a858294610a80610a66306109a7565b31610a79610a7386610229565b91610229565b1015610a0c565b610a35565b828215610a9a575bf115610a9557565b610a41565b506108fc610a8d565b90610aad91610968565b565b91610ad992610abc610902565b50610ad1610ac8611019565b829084916110c4565b919091611150565b600190565b5f90565b90565b610af9610af4610afe92610ae2565b61097c565b610435565b90565b610b09610ade565b50610b146012610ae5565b90565b90610b2991610b24611036565b610b90565b565b634e487b7160e01b5f52601160045260245ffd5b610b4890610435565b604d8111610b5657600a0a90565b610b2b565b610b6a610b7091939293610229565b92610229565b91610b7c838202610229565b928184041490151715610b8b57565b610b2b565b90610baf610bb59291610ba9610ba4610b01565b610b3f565b90610b5b565b906111ed565b565b90610bc191610b17565b565b610bd490610bcf611036565b610cd1565b565b90565b610bed610be8610bf292610bd6565b61097c565b610229565b90565b5f7f5072696365206d7573742062652067726561746572207468616e207a65726f00910152565b610c29601f602092610153565b610c3281610bf5565b0190565b610c4b9060208101905f818303910152610c1c565b90565b15610c5557565b610c5d610132565b62461bcd60e51b815280610c7360048201610c36565b0390fd5b5f1b90565b90610c885f1991610c77565b9181191691161790565b610ca6610ca1610cab92610229565b61097c565b610229565b90565b90565b90610cc6610cc1610ccd92610c92565b610cae565b8254610c7c565b9055565b610cf890610cf181610ceb610ce55f610bd9565b91610229565b11610c4e565b6006610cb1565b565b610d0390610bc3565b565b610d0e9061099b565b90565b90610d1b90610d05565b5f5260205260405f2090565b610d3d610d4291610d36610928565b505f610d11565b610945565b90565b610d4d611036565b610d55610d7f565b565b610d6b610d66610d7092610bd6565b61097c565b6101ef565b90565b610d7c90610d57565b90565b610d90610d8b5f610d73565b611289565b565b610d9a610d45565b565b5f90565b60018060a01b031690565b610db7610dbc9161092c565b610da0565b90565b610dc99054610dab565b90565b610dd4610d9c565b50610ddf6005610dbf565b90565b610dea610793565b50610df560046108e0565b90565b610e1591610e04610902565b50610e0d611019565b919091611150565b600190565b5f7f4d7573742073656e642045544820746f2062757920746f6b656e730000000000910152565b610e4e601b602092610153565b610e5781610e1a565b0190565b610e709060208101905f818303910152610e41565b90565b15610e7a57565b610e82610132565b62461bcd60e51b815280610e9860048201610e5b565b0390fd5b634e487b7160e01b5f52601260045260245ffd5b610ebc610ec291610229565b91610229565b908115610ecd570490565b610e9c565b610eee34610ee8610ee25f610bd9565b91610229565b11610e73565b610f1b610f0b34610f05610f00610b01565b610b3f565b90610b5b565b610f156006610945565b90610eb0565b610f263382906111ed565b33610f66610f547f745f661b8143944fb883f50694ebed3a871e43c451d9d4bf4648a9d551d7e47a92610d05565b92610f5d610132565b918291826102e6565b0390a2565b90610f7590610d05565b5f5260205260405f2090565b610fa691610f9c610fa192610f94610928565b506001610f6b565b610d11565b610945565b90565b610fba90610fb5611036565b610fbc565b565b80610fd7610fd1610fcc5f610d73565b6101fa565b916101fa565b14610fe757610fe590611289565b565b61100a610ff35f610d73565b5f918291631e4fbdf760e01b83526004830161061b565b0390fd5b61101790610fa9565b565b611021610d9c565b503390565b9161103492916001926112ea565b565b61103e610dcc565b61105761105161104c611019565b6101fa565b916101fa565b0361105e57565b611080611069611019565b5f91829163118cdaa760e01b83526004830161061b565b0390fd5b6040906110ad6110b494969593966110a360608401985f85019061060e565b60208301906102d9565b01906102d9565b565b906110c19103610229565b90565b9291926110d2818390610f81565b90816110e76110e15f19610229565b91610229565b106110f4575b5050509050565b8161110761110187610229565b91610229565b1061112d57611124939461111c9193926110b6565b905f926112ea565b805f80806110ed565b5061114c849291925f938493637dc7a0d960e11b855260048501611084565b0390fd5b918261116c6111666111615f610d73565b6101fa565b916101fa565b146111c6578161118c6111866111815f610d73565b6101fa565b916101fa565b1461119f5761119d9291909161142c565b565b6111c26111ab5f610d73565b5f91829163ec442f0560e01b83526004830161061b565b0390fd5b6111e96111d25f610d73565b5f918291634b637e8f60e11b83526004830161061b565b0390fd5b806112086112026111fd5f610d73565b6101fa565b916101fa565b14611224576112229161121a5f610d73565b91909161142c565b565b6112476112305f610d73565b5f91829163ec442f0560e01b83526004830161061b565b0390fd5b9061125c60018060a01b0391610c77565b9181191691161790565b90565b9061127e61127961128592610d05565b611266565b825461124b565b9055565b6112936005610dbf565b61129e826005611269565b906112d26112cc7f8be0079c531659141344cd1fd0a4f28419497f9722a3daafe3b4186f6b6457e093610d05565b91610d05565b916112db610132565b806112e58161038c565b0390a3565b9092816113076113016112fc5f610d73565b6101fa565b916101fa565b146113d2578361132761132161131c5f610d73565b6101fa565b916101fa565b146113ab5761134b8361134661133f60018690610f6b565b8790610d11565b610cb1565b611355575b505050565b9190916113a061138e6113887f8c5be1e5ebec7d5bd14f71427d1e84f3dd0314c0f7b2291e5b200ac8c7c3b92593610d05565b93610d05565b93611397610132565b918291826102e6565b0390a35f8080611350565b6113ce6113b75f610d73565b5f918291634a1406b160e11b83526004830161061b565b0390fd5b6113f56113de5f610d73565b5f91829163e602df0560e01b83526004830161061b565b0390fd5b61140861140e91939293610229565b92610229565b820180921161141957565b610b2b565b906114299101610229565b90565b9190918061144a61144461143f5f610d73565b6101fa565b916101fa565b145f1461152b5761146e611467836114626002610945565b6113f9565b6002610cb1565b5b8261148a61148461147f5f610d73565b6101fa565b916101fa565b145f146114ff576114ae6114a7836114a26002610945565b6110b6565b6002610cb1565b5b9190916114fa6114e86114e27fddf252ad1be2c89b69c2b068fc378daa952ba7f163c4a11628f55a4df523b3ef93610d05565b93610d05565b936114f1610132565b918291826102e6565b0390a3565b611526826115206115115f8790610d11565b9161151b83610945565b61141e565b90610cb1565b6114af565b61153e6115395f8390610d11565b610945565b8061155161154b85610229565b91610229565b10611579576115646115749184906110b6565b61156f5f8490610d11565b610cb1565b61146f565b906115979091925f93849363391434e360e21b855260048501611084565b0390fdfea264697066735822122073428f332bf6d8ceaa011a16d0c1b536e5e64fa4f9d3993b789d333487bea0f964736f6c634300081c0033","linkReferences":{}},"methodIdentifiers":{"allowance(address,address)":"dd62ed3e","approve(address,uint256)":"095ea7b3","balanceOf(address)":"70a08231","buyTokens()":"d0febe4c","decimals()":"313ce567","mint(address,uint256)":"40c10f19","name()":"06fdde03","owner()":"8da5cb5b","renounceOwnership()":"715018a6","symbol()":"95d89b41","tokenPrice()":"7ff9b596","totalSupply()":"18160ddd","transfer(address,uint256)":"a9059cbb","transferFrom(address,address,uint256)":"23b872dd","transferOwnership(address)":"f2fde38b","updateTokenPrice(uint256)":"676c0d77","withdrawEth(address,uint256)":"1b9a91a4"},"id":23}