{"abi":[{"type":"constructor","inputs":[{"name":"_cstToken","type":"address","internalType":"address"},{"name":"_publicAccountPhone","type":"string","internalType":"string"}],"stateMutability":"nonpayable"},{"type":"function","name":"REQUIRED_DEPOSIT","inputs":[],"outputs":[{"name":"","type":"uint256","internalType":"uint256"}],"stateMutability":"view"},{"type":"function","name":"REWARD_AMOUNT","inputs":[],"outputs":[{"name":"","type":"uint256","internalType":"uint256"}],"stateMutability":"view"},{"type":"function","name":"TRANSACTION_FEE","inputs":[],"outputs":[{"name":"","type":"uint256","internalType":"uint256"}],"stateMutability":"view"},{"type":"function","name":"acceptTransaction","inputs":[{"name":"transactionId","type":"uint256","internalType":"uint256"}],"outputs":[],"stateMutability":"nonpayable"},{"type":"function","name":"confirmTransfer","inputs":[{"name":"transactionId","type":"uint256","internalType":"uint256"},{"name":"phoneLastThreeDigits","type":"uint256","internalType":"uint256"}],"outputs":[],"stateMutability":"nonpayable"},{"type":"function","name":"createPost","inputs":[{"name":"offering","type":"tuple","internalType":"struct CoffeeSwap.Coffee","components":[{"name":"coffeeType","type":"uint8","internalType":"enum CoffeeSwap.CoffeeType"},{"name":"storeType","type":"uint8","internalType":"enum CoffeeSwap.StoreType"}]},{"name":"accepting","type":"tuple[]","internalType":"struct CoffeeSwap.Coffee[]","components":[{"name":"coffeeType","type":"uint8","internalType":"enum CoffeeSwap.CoffeeType"},{"name":"storeType","type":"uint8","internalType":"enum CoffeeSwap.StoreType"}]},{"name":"quantity","type":"uint256","internalType":"uint256"}],"outputs":[],"stateMutability":"nonpayable"},{"type":"function","name":"cstToken","inputs":[],"outputs":[{"name":"","type":"address","internalType":"contract IERC20"}],"stateMutability":"view"},{"type":"function","name":"getActivePostIds","inputs":[],"outputs":[{"name":"","type":"uint256[]","internalType":"uint256[]"}],"stateMutability":"view"},{"type":"function","name":"getMatchingPosts","inputs":[{"name":"coffeeOffered","type":"tuple","internalType":"struct CoffeeSwap.Coffee","components":[{"name":"coffeeType","type":"uint8","internalType":"enum CoffeeSwap.CoffeeType"},{"name":"storeType","type":"uint8","internalType":"enum CoffeeSwap.StoreType"}]},{"name":"coffeeWanted","type":"tuple","internalType":"struct CoffeeSwap.Coffee","components":[{"name":"coffeeType","type":"uint8","internalType":"enum CoffeeSwap.CoffeeType"},{"name":"storeType","type":"uint8","internalType":"enum CoffeeSwap.StoreType"}]}],"outputs":[{"name":"","type":"uint256[]","internalType":"uint256[]"}],"stateMutability":"view"},{"type":"function","name":"getPublicAccountPhone","inputs":[],"outputs":[{"name":"","type":"string","internalType":"string"}],"stateMutability":"view"},{"type":"function","name":"initiateTransaction","inputs":[{"name":"postId","type":"uint256","internalType":"uint256"}],"outputs":[],"stateMutability":"nonpayable"},{"type":"function","name":"owner","inputs":[],"outputs":[{"name":"","type":"address","internalType":"address"}],"stateMutability":"view"},{"type":"function","name":"publicAccountPhone","inputs":[],"outputs":[{"name":"","type":"string","internalType":"string"}],"stateMutability":"view"},{"type":"function","name":"registerUser","inputs":[],"outputs":[],"stateMutability":"nonpayable"},{"type":"function","name":"registeredUsers","inputs":[{"name":"","type":"address","internalType":"address"}],"outputs":[{"name":"","type":"bool","internalType":"bool"}],"stateMutability":"view"},{"type":"function","name":"renounceOwnership","inputs":[],"outputs":[],"stateMutability":"nonpayable"},{"type":"function","name":"swapPosts","inputs":[{"name":"","type":"uint256","internalType":"uint256"}],"outputs":[{"name":"user","type":"address","internalType":"address"},{"name":"offering","type":"tuple","internalType":"struct CoffeeSwap.Coffee","components":[{"name":"coffeeType","type":"uint8","internalType":"enum CoffeeSwap.CoffeeType"},{"name":"storeType","type":"uint8","internalType":"enum CoffeeSwap.StoreType"}]},{"name":"quantity","type":"uint256","internalType":"uint256"},{"name":"timestamp","type":"uint256","internalType":"uint256"},{"name":"active","type":"bool","internalType":"bool"}],"stateMutability":"view"},{"type":"function","name":"transactions","inputs":[{"name":"","type":"uint256","internalType":"uint256"}],"outputs":[{"name":"initiator","type":"address","internalType":"address"},{"name":"acceptor","type":"address","internalType":"address"},{"name":"initiatorCoffee","type":"tuple","internalType":"struct CoffeeSwap.Coffee","components":[{"name":"coffeeType","type":"uint8","internalType":"enum CoffeeSwap.CoffeeType"},{"name":"storeType","type":"uint8","internalType":"enum CoffeeSwap.StoreType"}]},{"name":"acceptorCoffee","type":"tuple","internalType":"struct CoffeeSwap.Coffee","components":[{"name":"coffeeType","type":"uint8","internalType":"enum CoffeeSwap.CoffeeType"},{"name":"storeType","type":"uint8","internalType":"enum CoffeeSwap.StoreType"}]},{"name":"initiatorPhoneLastDigits","type":"uint256","internalType":"uint256"},{"name":"acceptorPhoneLastDigits","type":"uint256","internalType":"uint256"},{"name":"timestamp","type":"uint256","internalType":"uint256"},{"name":"status","type":"uint8","internalType":"enum CoffeeSwap.TransactionStatus"},{"name":"firstTransferrer","type":"address","internalType":"address"}],"stateMutability":"view"},{"type":"function","name":"transferOwnership","inputs":[{"name":"newOwner","type":"address","internalType":"address"}],"outputs":[],"stateMutability":"nonpayable"},{"type":"function","name":"updatePublicAccountPhone","inputs":[{"name":"_publicAccountPhone","type":"string","internalType":"string"}],"outputs":[],"stateMutability":"nonpayable"},{"type":"function","name":"userDeposits","inputs":[{"name":"","type":"address","internalType":"address"}],"outputs":[{"name":"","type":"uint256","internalType":"uint256"}],"stateMutability":"view"},{"type":"function","name":"verifyTransaction","inputs":[{"name":"transactionId","type":"uint256","internalType":"uint256"},{"name":"isValid","type":"bool","internalType":"bool"}],"outputs":[],"stateMutability":"nonpayable"},{"type":"event","name":"OwnershipTransferred","inputs":[{"name":"previousOwner","type":"address","indexed":true,"internalType":"address"},{"name":"newOwner","type":"address","indexed":true,"internalType":"address"}],"anonymous":false},{"type":"event","name":"PostCreated","inputs":[{"name":"user","type":"address","indexed":true,"internalType":"address"},{"name":"postId","type":"uint256","indexed":false,"internalType":"uint256"}],"anonymous":false},{"type":"event","name":"PostRemoved","inputs":[{"name":"user","type":"address","indexed":true,"internalType":"address"},{"name":"postId","type":"uint256","indexed":false,"internalType":"uint256"}],"anonymous":false},{"type":"event","name":"PostUpdated","inputs":[{"name":"user","type":"address","indexed":true,"internalType":"address"},{"name":"postId","type":"uint256","indexed":false,"internalType":"uint256"}],"anonymous":false},{"type":"event","name":"TransactionCompleted","inputs":[{"name":"transactionId","type":"uint256","indexed":false,"internalType":"uint256"}],"anonymous":false},{"type":"event","name":"TransactionDisputed","inputs":[{"name":"transactionId","type":"uint256","indexed":false,"internalType":"uint256"}],"anonymous":false},{"type":"event","name":"TransactionInitiated","inputs":[{"name":"initiator","type":"address","indexed":true,"internalType":"address"},{"name":"acceptor","type":"address","indexed":true,"internalType":"address"},{"name":"transactionId","type":"uint256","indexed":false,"internalType":"uint256"}],"anonymous":false},{"type":"event","name":"TransferConfirmed","inputs":[{"name":"user","type":"address","indexed":true,"internalType":"address"},{"name":"transactionId","type":"uint256","indexed":false,"internalType":"uint256"}],"anonymous":false},{"type":"event","name":"UserRegistered","inputs":[{"name":"user","type":"address","indexed":true,"internalType":"address"}],"anonymous":false},{"type":"error","name":"OwnableInvalidOwner","inputs":[{"name":"owner","type":"address","internalType":"address"}]},{"type":"error","name":"OwnableUnauthorizedAccount","inputs":[{"name":"account","type":"address","internalType":"address"}]},{"type":"error","name":"ReentrancyGuardReentrantCall","inputs":[]}],"bytecode":{"object":"0x6080604052346100305761001a6100146101ab565b906104a7565b610022610035565b613f486106bf8239613f4890f35b61003b565b60405190565b5f80fd5b601f801991011690565b634e487b7160e01b5f52604160045260245ffd5b906100679061003f565b810190811060018060401b0382111761007f57604052565b610049565b90610097610090610035565b928361005d565b565b5f80fd5b5f80fd5b60018060a01b031690565b6100b5906100a1565b90565b6100c1816100ac565b036100c857565b5f80fd5b905051906100d9826100b8565b565b5f80fd5b5f80fd5b60018060401b0381116100ff576100fb60209161003f565b0190565b610049565b90825f9392825e0152565b9092919261012461011f826100e3565b610084565b938185526020850190828401116101405761013e92610104565b565b6100df565b9080601f83011215610163578160206101609351910161010f565b90565b6100db565b9190916040818403126101a657610181835f83016100cc565b92602082015160018060401b0381116101a15761019e9201610145565b90565b61009d565b610099565b6101c9614607803803806101be81610084565b928339810190610168565b9091565b90565b6101e46101df6101e9926100a1565b6101cd565b6100a1565b90565b6101f5906101d0565b90565b610201906101ec565b90565b5f1b90565b9061021a60018060a01b0391610204565b9181191691161790565b61022d906101ec565b90565b90565b9061024861024361024f92610224565b610230565b8254610209565b9055565b5190565b634e487b7160e01b5f52602260045260245ffd5b906001600283049216801561028b575b602083101461028657565b610257565b91607f169161027b565b5f5260205f2090565b601f602091010490565b1b90565b919060086102c79102916102c15f19846102a8565b926102a8565b9181191691161790565b90565b6102e86102e36102ed926102d1565b6101cd565b6102d1565b90565b90565b9190610309610304610311936102d4565b6102f0565b9083546102ac565b9055565b5f90565b61032b91610325610315565b916102f3565b565b5b818110610339575050565b806103465f600193610319565b0161032e565b9190601f811161035c575b505050565b61036861038d93610295565b9060206103748461029e565b83019310610395575b6103869061029e565b019061032d565b5f8080610357565b91506103868192905061037d565b1c90565b906103b7905f19906008026103a3565b191690565b816103c6916103a7565b906002021790565b906103d881610253565b9060018060401b038211610496576103fa826103f4855461026b565b8561034c565b602090601f831160011461042e5791809161041d935f92610422575b50506103bc565b90555b565b90915001515f80610416565b601f1983169161043d85610295565b925f5b81811061047e57509160029391856001969410610464575b50505002019055610420565b610474910151601f8416906103a7565b90555f8080610458565b91936020600181928787015181550195019201610440565b610049565b906104a5916103ce565b565b906104c76104c06104ce936104bb33610532565b6101f8565b6002610233565b600761049b565b565b90565b6104e76104e26104ec926104d0565b6101cd565b6102d1565b90565b6104f960016104d3565b90565b906105085f1991610204565b9181191691161790565b9061052761052261052e926102d4565b6102f0565b82546104fc565b9055565b61053b9061059c565b61054d6105466104ef565b6001610512565b565b90565b61056661056161056b9261054f565b6101cd565b6100a1565b90565b61057790610552565b90565b610583906100ac565b9052565b919061059a905f6020850194019061057a565b565b806105b76105b16105ac5f61056e565b6100ac565b916100ac565b146105c7576105c59061065f565b565b6105ea6105d35f61056e565b5f918291631e4fbdf760e01b835260048301610587565b0390fd5b5f1c90565b60018060a01b031690565b61060a61060f916105ee565b6105f3565b90565b61061c90546105fe565b90565b610628906101d0565b90565b6106349061061f565b90565b90565b9061064f61064a6106569261062b565b610637565b8254610209565b9055565b5f0190565b6106685f610612565b610672825f61063a565b906106a66106a07f8be0079c531659141344cd1fd0a4f28419497f9722a3daafe3b4186f6b6457e09361062b565b9161062b565b916106af610035565b806106b98161065a565b0390a356fe60806040526004361015610013575b61135d565b61001d5f3561017b565b8062511fcd1461017657806306932b68146101715780630ba36dcd1461016c5780630e50cee514610167578063156b34a414610162578063285fdf791461015d5780633f1e3377146101585780633fd2007d146101535780634d3820eb1461014e57806366a545c314610149578063715018a61461014457806379b48b0e1461013f5780638da5cb5b1461013a5780638dd3bb21146101355780639ace38c214610130578063a9dd68951461012b578063b1b2353514610126578063bd8e99bd14610121578063be64b76b1461011c578063c8b0e27b14610117578063cf849442146101125763f2fde38b0361000e5761132a565b6112f5565b611282565b61124d565b6111da565b611155565b6110e4565b6110a5565b610e9e565b610ba9565b610b53565b610af3565b610ac0565b6109cd565b61099a565b610947565b6108a4565b6106c9565b610685565b6105ce565b61048b565b61038b565b60e01c90565b60405190565b5f80fd5b5f80fd5b5f80fd5b5f80fd5b601f801991011690565b634e487b7160e01b5f52604160045260245ffd5b906101bf90610197565b810190811067ffffffffffffffff8211176101d957604052565b6101a1565b906101f16101ea610181565b92836101b5565b565b600411156101fd57565b5f80fd5b9050359061020e826101f3565b565b6003111561021a57565b5f80fd5b9050359061022b82610210565b565b9190604083820312610267576102609061024760406101de565b93610254825f8301610201565b5f86015260200161021e565b6020830152565b610193565b5f80fd5b67ffffffffffffffff81116102885760208091020190565b6101a1565b5f80fd5b909291926102a66102a182610270565b6101de565b9381855260406020860192028301928184116102e557915b8383106102cb5750505050565b60206040916102da848661022d565b8152019201916102be565b61028d565b9080601f830112156103085781602061030593359101610291565b90565b61026c565b90565b6103198161030d565b0361032057565b5f80fd5b9050359061033182610310565b565b90916080828403126103815761034b835f840161022d565b9260408301359067ffffffffffffffff821161037c57610370816103799386016102ea565b93606001610324565b90565b61018f565b61018b565b5f0190565b346103ba576103a461039e366004610333565b91611b3a565b6103ac610181565b806103b681610386565b0390f35b610187565b91906080838203126103e757806103db6103e4925f860161022d565b9360400161022d565b90565b61018b565b5190565b60209181520190565b60200190565b6104089061030d565b9052565b90610419816020936103ff565b0190565b60200190565b9061044061043a610433846103ec565b80936103f0565b926103f9565b905f5b8181106104505750505090565b909192610469610463600192865161040c565b9461041d565b9101919091610443565b6104889160208201915f818403910152610423565b90565b346104bc576104b86104a76104a13660046103bf565b90611de2565b6104af610181565b91829182610473565b0390f35b610187565b60018060a01b031690565b6104d5906104c1565b90565b6104e1816104cc565b036104e857565b5f80fd5b905035906104f9826104d8565b565b9060208282031261051457610511915f016104ec565b90565b61018b565b90565b61053061052b610535926104c1565b610519565b6104c1565b90565b6105419061051c565b90565b61054d90610538565b90565b9061055a90610544565b5f5260205260405f2090565b1c90565b90565b61057d9060086105829302610566565b61056a565b90565b90610590915461056d565b90565b6105a9906105a46006915f92610550565b610585565b90565b6105b59061030d565b9052565b91906105cc905f602085019401906105ac565b565b346105fe576105fa6105e96105e43660046104fb565b610593565b6105f1610181565b918291826105b9565b0390f35b610187565b9061060d90610544565b5f5260205260405f2090565b60ff1690565b61062f9060086106349302610566565b610619565b90565b90610642915461061f565b90565b61065b906106566005915f92610603565b610637565b90565b151590565b61066c9061065e565b9052565b9190610683905f60208501940190610663565b565b346106b5576106b16106a061069b3660046104fb565b610645565b6106a8610181565b91829182610670565b0390f35b610187565b5f9103126106c457565b61018b565b346106f9576106d93660046106ba565b6106f56106e46121e9565b6106ec610181565b91829182610473565b0390f35b610187565b634e487b7160e01b5f525f60045260245ffd5b634e487b7160e01b5f52602260045260245ffd5b9060016002830492168015610745575b602083101461074057565b610711565b91607f1691610735565b60209181520190565b5f5260205f2090565b905f929180549061077b61077483610725565b809461074f565b916001811690815f146107d25750600114610796575b505050565b6107a39192939450610758565b915f925b8184106107ba57505001905f8080610791565b600181602092959395548486015201910192906107a7565b92949550505060ff19168252151560200201905f8080610791565b906107f791610761565b90565b9061081a6108139261080a610181565b938480926107ed565b03836101b5565b565b905f1061082f5761082c906107fa565b90565b6106fe565b61084060075f9061081c565b90565b5190565b60209181520190565b90825f9392825e0152565b61087a6108836020936108889361087181610843565b93848093610847565b95869101610850565b610197565b0190565b6108a19160208201915f81840391015261085b565b90565b346108d4576108b43660046106ba565b6108d06108bf610834565b6108c7610181565b9182918261088c565b0390f35b610187565b60018060a01b031690565b6108f49060086108f99302610566565b6108d9565b90565b9061090791546108e4565b90565b61091660025f906108fc565b90565b61092290610538565b90565b61092e90610919565b9052565b9190610945905f60208501940190610925565b565b34610977576109573660046106ba565b61097361096261090a565b61096a610181565b91829182610932565b0390f35b610187565b9060208282031261099557610992915f01610324565b90565b61018b565b346109c8576109b26109ad36600461097c565b612a73565b6109ba610181565b806109c481610386565b0390f35b610187565b346109fb576109dd3660046106ba565b6109e5612b00565b6109ed610181565b806109f781610386565b0390f35b610187565b5f80fd5b67ffffffffffffffff8111610a2257610a1e602091610197565b0190565b6101a1565b90825f939282370152565b90929192610a47610a4282610a04565b6101de565b93818552602085019082840111610a6357610a6192610a27565b565b610a00565b9080601f83011215610a8657816020610a8393359101610a32565b90565b61026c565b90602082820312610abb575f82013567ffffffffffffffff8111610ab657610ab39201610a68565b90565b61018f565b61018b565b34610aee57610ad8610ad3366004610a8b565b612d7f565b610ae0610181565b80610aea81610386565b0390f35b610187565b34610b2157610b033660046106ba565b610b0b612daf565b610b13610181565b80610b1d81610386565b0390f35b610187565b9190604083820312610b4e5780610b42610b4b925f8601610324565b93602001610324565b90565b61018b565b34610b8257610b6c610b66366004610b26565b90612fe3565b610b74610181565b80610b7e81610386565b0390f35b610187565b610b90906104cc565b9052565b9190610ba7905f60208501940190610b87565b565b34610bd957610bb93660046106ba565b610bd5610bc46131ab565b610bcc610181565b91829182610b94565b0390f35b610187565b634e487b7160e01b5f52603260045260245ffd5b5490565b5f5260205f2090565b610c0881610bf2565b821015610c2257610c1a600691610bf6565b910201905f90565b610bde565b5f1c90565b60018060a01b031690565b610c43610c4891610c27565b610c2c565b90565b610c559054610c37565b90565b60ff1690565b610c6a610c6f91610c27565b610c58565b90565b610c7c9054610c5e565b90565b634e487b7160e01b5f52602160045260245ffd5b60041115610c9d57565b610c7f565b90610cac82610c93565b565b90610cb890610ca2565b9052565b60081c90565b60ff1690565b610cd4610cd991610cbc565b610cc2565b90565b610ce69054610cc8565b90565b60031115610cf357565b610c7f565b90610d0282610ce9565b565b90610d0e90610cf8565b9052565b610d1c60406101de565b90565b90610d55610d4c5f610d2f610d12565b94610d46610d3e838301610c72565b838801610cae565b01610cdc565b60208401610d04565b565b610d63610d6891610c27565b61056a565b90565b610d759054610d57565b90565b610d84610d8991610c27565b610619565b90565b610d969054610d78565b90565b600390610da582610bf2565b811015610df757610db591610bff565b50610dc15f8201610c4b565b91610dce60018301610d1f565b91610ddb60038201610d6b565b91610df46005610ded60048501610d6b565b9301610d8c565b90565b5f80fd5b610e0490610ca2565b90565b610e1090610dfb565b9052565b610e1d90610cf8565b90565b610e2990610e14565b9052565b90602080610e4f93610e455f8201515f860190610e07565b0151910190610e20565b565b90959492610e9c94610e8b610e9592610e8160a096610e7760c088019c5f890190610b87565b6020870190610e2d565b60608501906105ac565b60808301906105ac565b0190610663565b565b34610ed257610ece610eb9610eb436600461097c565b610d99565b91610ec5959395610181565b95869586610e51565b0390f35b610187565b5490565b5f5260205f2090565b610eed81610ed7565b821015610f0757610eff600891610edb565b910201905f90565b610bde565b60ff1690565b610f1e610f2391610c27565b610f0c565b90565b610f309054610f12565b90565b610f3f610f4491610cbc565b610c2c565b90565b610f519054610f33565b90565b600490610f6082610ed7565b811015610fe557610f7091610ee4565b50610f7c5f8201610c4b565b91610f8960018301610c4b565b91610f9660028201610d1f565b91610fa360038301610d1f565b91610fb060048201610d6b565b91610fbd60058301610d6b565b91610fca60068201610d6b565b91610fe26007610fdb818501610f26565b9301610f47565b90565b5f80fd5b60051115610ff357565b610c7f565b9061100282610fe9565b565b61100d90610ff8565b90565b61101990611004565b9052565b9694929099989795939161016088019a5f890161103991610b87565b6020880161104691610b87565b6040870161105391610e2d565b6080860161106091610e2d565b60c0850161106d916105ac565b60e0840161107a916105ac565b6101008301611088916105ac565b610120820161109691611010565b610140016110a391610b87565b565b346110df576110db6110c06110bb36600461097c565b610f54565b956110d2999799959195949294610181565b998a998a61101d565b0390f35b610187565b34611112576110fc6110f736600461097c565b613459565b611104610181565b8061110e81610386565b0390f35b610187565b90565b61112e61112961113392611117565b610519565b61030d565b90565b611147670de0b6b3a764000061111a565b90565b611152611136565b90565b34611185576111653660046106ba565b61118161117061114a565b611178610181565b918291826105b9565b0390f35b610187565b6111938161065e565b0361119a57565b5f80fd5b905035906111ab8261118a565b565b91906040838203126111d557806111c96111d2925f8601610324565b9360200161119e565b90565b61018b565b34611209576111f36111ed3660046111ad565b90613ab6565b6111fb610181565b8061120581610386565b0390f35b610187565b90565b61122561122061122a9261120e565b610519565b61030d565b90565b61123f6801158e460913d00000611211565b90565b61124a61122d565b90565b3461127d5761125d3660046106ba565b611279611268611242565b611270610181565b918291826105b9565b0390f35b610187565b346112b2576112923660046106ba565b6112ae61129d613ad3565b6112a5610181565b9182918261088c565b0390f35b610187565b90565b6112ce6112c96112d3926112b7565b610519565b61030d565b90565b6112e76706f05b59d3b200006112ba565b90565b6112f26112d6565b90565b34611325576113053660046106ba565b6113216113106112ea565b611318610181565b918291826105b9565b0390f35b610187565b346113585761134261133d3660046104fb565b613b4e565b61134a610181565b8061135481610386565b0390f35b610187565b5f80fd5b5f7f55736572206e6f74207265676973746572656400000000000000000000000000910152565b6113956013602092610847565b61139e81611361565b0190565b6113b79060208101905f818303910152611388565b90565b156113c157565b6113c9610181565b62461bcd60e51b8152806113df600482016113a2565b0390fd5b90565b6113fa6113f56113ff926113e3565b610519565b61030d565b90565b60207f726f000000000000000000000000000000000000000000000000000000000000917f5175616e74697479206d7573742062652067726561746572207468616e207a655f8201520152565b61145c6022604092610847565b61146581611402565b0190565b61147e9060208101905f81830391015261144f565b90565b1561148857565b611490610181565b62461bcd60e51b8152806114a660048201611469565b0390fd5b5190565b60207f20636f6666656500000000000000000000000000000000000000000000000000917f4d75737420616363657074206174206c65617374206f6e652074797065206f665f8201520152565b6115086027604092610847565b611511816114ae565b0190565b61152a9060208101905f8183039101526114fb565b90565b1561153457565b61153c610181565b62461bcd60e51b81528061155260048201611515565b0390fd5b61156261156791610c27565b6108d9565b90565b6115749054611556565b90565b61158090610538565b90565b60e01b90565b905051906115968261118a565b565b906020828203126115b1576115ae915f01611589565b90565b61018b565b6040906115df6115e694969593966115d560608401985f850190610b87565b6020830190610b87565b01906105ac565b565b6115f0610181565b3d5f823e3d90fd5b5f7f466565207472616e73666572206661696c656400000000000000000000000000910152565b61162c6013602092610847565b611635816115f8565b0190565b61164e9060208101905f81830391015261161f565b90565b1561165857565b611660610181565b62461bcd60e51b81528061167660048201611639565b0390fd5b61168460c06101de565b90565b90611691906104cc565b9052565b52565b52565b906116a59061030d565b9052565b906116b39061065e565b9052565b90565b5f5260205f2090565b5490565b6116d0816116c3565b8210156116ea576116e26006916116ba565b910201905f90565b610bde565b6116f990516104cc565b90565b5f1b90565b9061171260018060a01b03916116fc565b9181191691161790565b90565b9061173461172f61173b92610544565b61171c565b8254611701565b9055565b5190565b61174d9051610ca2565b90565b9061175c60ff916116fc565b9181191691161790565b61176f90610ca2565b90565b90565b9061178a61178561179192611766565b611772565b8254611750565b9055565b61179f9051610cf8565b90565b60081b90565b906117b561ff00916117a2565b9181191691161790565b6117c890610cf8565b90565b90565b906117e36117de6117ea926117bf565b6117cb565b82546117a8565b9055565b9061181860205f61181e9461181082820161180a848801611743565b90611775565b019201611795565b906117ce565b565b9061182a916117ee565b565b5190565b60200190565b5490565b634e487b7160e01b5f52601160045260245ffd5b600190818003010490565b5f5260205f2090565b5f80910155565b905f0361187b5761187990611862565b565b6106fe565b5b81811061188c575050565b806118995f600193611869565b01611881565b90918281106118ae575b505050565b6118cc6118c66118c06118d79561184e565b9261184e565b92611859565b918201910190611880565b5f80806118a9565b9068010000000000000000811161190857816118fd61190693611836565b9082815561189f565b565b6101a1565b61193261192c61191c846114aa565b9361192785856118df565b611830565b91611859565b5f915b8383106119425750505050565b600160208261195a611954849561173f565b86611820565b01920192019190611935565b906119709161190d565b565b61197c905161030d565b90565b9061198b5f19916116fc565b9181191691161790565b6119a96119a46119ae9261030d565b610519565b61030d565b90565b90565b906119c96119c46119d092611995565b6119b1565b825461197f565b9055565b6119de905161065e565b90565b6119ea9061065e565b90565b90565b90611a05611a00611a0c926119e1565b6119ed565b8254611750565b9055565b90611a9f60a06005611aa594611a335f8201611a2d5f88016116ef565b9061171f565b611a4c60018201611a466020880161173f565b90611820565b611a6560028201611a5f6040880161182c565b90611966565b611a7e60038201611a7860608801611972565b906119b4565b611a9760048201611a9160808801611972565b906119b4565b0192016119d4565b906119f0565b565b9190611ab857611ab691611a10565b565b6106fe565b1b90565b9081549168010000000000000000831015611af15782611ae9916001611aef950181556116c7565b90611aa7565b565b6101a1565b90565b611b0d611b08611b1292611af6565b610519565b61030d565b90565b611b24611b2a9193929361030d565b9261030d565b8203918211611b3557565b61183a565b90611b57611b52611b4d60053390610603565b610d8c565b6113ba565b611b7383611b6d611b675f6113e6565b9161030d565b11611481565b611b97611b7f826114aa565b611b91611b8b5f6113e6565b9161030d565b1161152d565b611ba9611ba4600261156a565b610919565b9060206323b872dd923390611be15f611bc130611577565b96611bec611bcd611136565b611bd5610181565b998a9788968795611583565b8552600485016115b6565b03925af18015611d0557611c7494611c12611c5c92611c65955f91611cd7575b50611651565b611c5333959391611c4a4293611c41600197611c38611c2f61167a565b9b5f8d01611687565b60208b01611695565b60408901611698565b6060870161169b565b6080850161169b565b60a083016116a9565b611c6f60036116b7565b611ac1565b33611c92611c826003610bf2565b611c8c6001611af9565b90611b15565b90611cd2611cc07f09cf2578b7d56ad392e46d90ca0c5004ffca074e158a150ccc34aac58ce1b8c692610544565b92611cc9610181565b918291826105b9565b0390a2565b611cf8915060203d8111611cfe575b611cf081836101b5565b810190611598565b5f611c0c565b503d611ce6565b6115e8565b606090565b6001611d1b910161030d565b90565b611d2781611836565b821015611d4157611d39600191611859565b910201905f90565b610bde565b611d4f9061030d565b5f198114611d5d5760010190565b61183a565b67ffffffffffffffff8111611d7a5760208091020190565b6101a1565b90611d91611d8c83611d62565b6101de565b918252565b369037565b90611dc0611da883611d7f565b92602080611db68693611d62565b9201910390611d96565b565b90611dcc826103ec565b811015611ddd576020809102010190565b610bde565b9190611dec611d0a565b50611df65f6113e6565b90611e005f6113e6565b5b80611e1d611e17611e126003610bf2565b61030d565b9161030d565b1015611fd657611e3b6005611e3460038490610bff565b5001610d8c565b80611f99575b80611f5b575b611e5a575b611e5590611d0f565b611e01565b92611e645f6113e6565b5b80611e8f611e89611e846002611e7d60038b90610bff565b5001611836565b61030d565b9161030d565b1015611f5057611eba5f611eb36002611eaa60038a90610bff565b50018490611d1e565b5001610c72565b611ed6611ed0611ecb5f8a01611743565b610ca2565b91610ca2565b1480611f07575b611eef57611eea90611d0f565b611e65565b509291611efe611e5591611d46565b925b9050611e4c565b50611f2d5f611f266002611f1d60038a90610bff565b50018490611d1e565b5001610cdc565b611f4a611f44611f3f60208a01611795565b610cf8565b91610cf8565b14611edd565b5092611e5590611f00565b50611f765f6001611f6e60038590610bff565b500101610cdc565b611f93611f8d611f8860208601611795565b610cf8565b91610cf8565b14611e47565b50611fb45f6001611fac60038590610bff565b500101610c72565b611fd0611fca611fc55f8601611743565b610ca2565b91610ca2565b14611e41565b5090611fe190611d9b565b611fea5f6113e6565b91611ff45f6113e6565b5b8061201161200b6120066003610bf2565b61030d565b9161030d565b10156121e05761202f600561202860038490610bff565b5001610d8c565b806121a3575b80612165575b61204e575b61204990611d0f565b611ff5565b936120585f6113e6565b5b8061208361207d612078600261207160038c90610bff565b5001611836565b61030d565b9161030d565b101561215a576120ae5f6120a7600261209e60038b90610bff565b50018490611d1e565b5001610c72565b6120ca6120c46120bf5f8b01611743565b610ca2565b91610ca2565b1480612111575b6120e3576120de90611d0f565b612059565b50939261210861204991612103866120fe8791849092611dc2565b61169b565b611d46565b935b9050612040565b506121375f612130600261212760038b90610bff565b50018490611d1e565b5001610cdc565b61215461214e61214960208b01611795565b610cf8565b91610cf8565b146120d1565b50936120499061210a565b506121805f600161217860038590610bff565b500101610cdc565b61219d61219761219260208601611795565b610cf8565b91610cf8565b1461203b565b506121be5f60016121b660038590610bff565b500101610c72565b6121da6121d46121cf5f8601611743565b610ca2565b91610ca2565b14612035565b50509192505090565b6121f1611d0a565b506121fb5f6113e6565b6122045f6113e6565b5b8061222161221b6122166003610bf2565b61030d565b9161030d565b10156122675761223f600561223860038490610bff565b5001610d8c565b612252575b61224d90611d0f565b612205565b9061225f61224d91611d46565b919050612244565b5061227190611d9b565b61227a5f6113e6565b906122845f6113e6565b5b806122a161229b6122966003610bf2565b61030d565b9161030d565b10156122fd576122bf60056122b860038490610bff565b5001610d8c565b6122d2575b6122cd90611d0f565b612285565b916122f56122cd916122f0856122eb8691849092611dc2565b61169b565b611d46565b9290506122c4565b50905090565b6123149061230f613b85565b612779565b61231c613bea565b565b5f7f496e76616c696420706f73742049440000000000000000000000000000000000910152565b612352600f602092610847565b61235b8161231e565b0190565b6123749060208101905f818303910152612345565b90565b1561237e57565b612386610181565b62461bcd60e51b81528061239c6004820161235f565b0390fd5b5f7f506f7374206973206e6f74206163746976650000000000000000000000000000910152565b6123d46012602092610847565b6123dd816123a0565b0190565b6123f69060208101905f8183039101526123c7565b90565b1561240057565b612408610181565b62461bcd60e51b81528061241e600482016123e1565b0390fd5b5f7f43616e6e6f74207472616465207769746820796f757273656c66000000000000910152565b612456601a602092610847565b61245f81612422565b0190565b6124789060208101905f818303910152612449565b90565b1561248257565b61248a610181565b62461bcd60e51b8152806124a060048201612463565b0390fd5b5f7f4465706f736974207472616e73666572206661696c6564000000000000000000910152565b6124d86017602092610847565b6124e1816124a4565b0190565b6124fa9060208101905f8183039101526124cb565b90565b1561250457565b61250c610181565b62461bcd60e51b815280612522600482016124e5565b0390fd5b61253561253b9193929361030d565b9261030d565b820180921161254657565b61183a565b61255f61255a612564926113e3565b610519565b6104c1565b90565b6125709061254b565b90565b61257e6101206101de565b90565b61258a90610d1f565b90565b9061259790610ff8565b9052565b90565b5f5260205f2090565b5490565b6125b4816125a7565b8210156125ce576125c660089161259e565b910201905f90565b610bde565b6125dd9051610ff8565b90565b6125e990610ff8565b90565b90565b906126046125ff61260b926125e0565b6125ec565b8254611750565b9055565b90612622610100600160a81b03916117a2565b9181191691161790565b9061264161263c61264892610544565b61171c565b825461260f565b9055565b90612726610100600761272c946126705f820161266a5f88016116ef565b9061171f565b61268960018201612683602088016116ef565b9061171f565b6126a26002820161269c6040880161173f565b90611820565b6126bb600382016126b56060880161173f565b90611820565b6126d4600482016126ce60808801611972565b906119b4565b6126ed600582016126e760a08801611972565b906119b4565b6127066006820161270060c08801611972565b906119b4565b61271e82820161271860e088016125d3565b906125ef565b0192016116ef565b9061262c565b565b919061273f5761273d9161264c565b565b6106fe565b9081549168010000000000000000831015612774578261276c916001612772950181556125ab565b9061272e565b565b6101a1565b61279561279061278b60053390610603565b610d8c565b6113ba565b6127ba816127b46127ae6127a96003610bf2565b61030d565b9161030d565b10612377565b6127da6127d560056127ce60038590610bff565b5001610d8c565b6123f9565b61280d6127f45f6127ed60038590610bff565b5001610c4b565b612806612800336104cc565b916104cc565b141561247b565b61281f61281a600261156a565b610919565b60206323b872dd9133906128565f61283630611577565b9561286161284261122d565b61284a610181565b98899788968795611583565b8552600485016115b6565b03925af18015612a6e5761287c915f91612a40575b506124fd565b61288461122d565b60063361289091610550565b9061289a82610d6b565b906128a491612526565b6128ad916119b4565b336003826128ba91610bff565b505f016128c690610c4b565b6003839033906128d5906116b7565b916128df92613c93565b6003846128eb91610bff565b506001015f5f9042925f945f61290090612567565b96612909612573565b985f8a019061291791611687565b602089019061292591611687565b604088019061293391611695565b61293c90612581565b606087019061294a91611695565b612953906113e6565b60808601906129619161169b565b61296a906113e6565b60a08501906129789161169b565b60c08401906129869161169b565b60e08301906129949161258d565b6101008201906129a391611687565b60046129ae9061259b565b906129b891612744565b33906003906129c691610bff565b505f016129d290610c4b565b60046129dd90610ed7565b60016129e890611af9565b6129f191611b15565b917f09ff2302f4abda8e8643155ee4bda3d566a5eacf743348474c69bff314d9a10090612a1d90610544565b91612a2790610544565b92612a30610181565b612a3b8192826105b9565b0390a3565b612a61915060203d8111612a67575b612a5981836101b5565b810190611598565b5f612876565b503d612a4f565b6115e8565b612a7c90612303565b565b5f7f5573657220616c72656164792072656769737465726564000000000000000000910152565b612ab26017602092610847565b612abb81612a7e565b0190565b612ad49060208101905f818303910152612aa5565b90565b15612ade57565b612ae6610181565b62461bcd60e51b815280612afc60048201612abf565b0390fd5b612b25612b20612b1a612b1560053390610603565b610d8c565b1561065e565b612ad7565b612b3b6001612b3660053390610603565b6119f0565b33612b667f54db7a5cb4735e1aac1f53db512d3390390bb6637bd30ad4bf9fc98667d9b9b991610544565b90612b6f610181565b80612b7981610386565b0390a2565b612b8f90612b8a613e58565b612d72565b565b601f602091010490565b91906008612bb6910291612bb05f1984611abd565b92611abd565b9181191691161790565b9190612bd6612bd1612bde93611995565b6119b1565b908354612b9b565b9055565b5f90565b612bf891612bf2612be2565b91612bc0565b565b5b818110612c06575050565b80612c135f600193612be6565b01612bfb565b9190601f8111612c29575b505050565b612c35612c5a93610758565b906020612c4184612b91565b83019310612c62575b612c5390612b91565b0190612bfa565b5f8080612c24565b9150612c5381929050612c4a565b90612c80905f1990600802610566565b191690565b81612c8f91612c70565b906002021790565b90612ca181610843565b9067ffffffffffffffff8211612d6157612cc582612cbf8554610725565b85612c19565b602090601f8311600114612cf957918091612ce8935f92612ced575b5050612c85565b90555b565b90915001515f80612ce1565b601f19831691612d0885610758565b925f5b818110612d4957509160029391856001969410612d2f575b50505002019055612ceb565b612d3f910151601f841690612c70565b90555f8080612d23565b91936020600181928787015181550195019201612d0b565b6101a1565b90612d7091612c97565b565b612d7d906007612d66565b565b612d8890612b7e565b565b612d92613e58565b612d9a612d9c565b565b612dad612da85f612567565b613ea6565b565b612db7612d8a565b565b5f7f496e76616c6964207472616e73616374696f6e20494400000000000000000000910152565b612ded6016602092610847565b612df681612db9565b0190565b612e0f9060208101905f818303910152612de0565b90565b15612e1957565b612e21610181565b62461bcd60e51b815280612e3760048201612dfa565b0390fd5b5f7f4e6f742070617274206f662074686973207472616e73616374696f6e00000000910152565b612e6f601c602092610847565b612e7881612e3b565b0190565b612e919060208101905f818303910152612e62565b90565b15612e9b57565b612ea3610181565b62461bcd60e51b815280612eb960048201612e7c565b0390fd5b5f7f4e6f74206177616974696e67207472616e736665720000000000000000000000910152565b612ef16015602092610847565b612efa81612ebd565b0190565b612f139060208101905f818303910152612ee4565b90565b15612f1d57565b612f25610181565b62461bcd60e51b815280612f3b60048201612efe565b0390fd5b90565b612f56612f51612f5b92612f3f565b610519565b61030d565b90565b5f7f496e76616c69642070686f6e6520646967697473000000000000000000000000910152565b612f926014602092610847565b612f9b81612f5e565b0190565b612fb49060208101905f818303910152612f85565b90565b15612fbe57565b612fc6610181565b62461bcd60e51b815280612fdc60048201612f9f565b0390fd5b90565b9061300982613003612ffd612ff86004610ed7565b61030d565b9161030d565b10612e12565b6130205f61301960048590610ee4565b5001610c4b565b61303261302c336104cc565b916104cc565b148015613171575b61304390612e94565b61307761305e600761305760048690610ee4565b5001610f26565b61307161306b6001610ff8565b91610ff8565b14612f16565b6130958161308f6130896103e8612f42565b9161030d565b10612fb7565b6130aa6130a460048490610ee4565b50612fe0565b6130b660078201610f47565b6130d06130ca6130c55f612567565b6104cc565b916104cc565b1461315f575b6130e15f8201610c4b565b6130f36130ed336104cc565b916104cc565b145f1461314d5760046131079291016119b4565b5b336131486131367f8b49b630163337db75e9d746ad0c5ebbf17c260e0d837a70af9a5fc6ef075e6b92610544565b9261313f610181565b918291826105b9565b0390a2565b600561315a9291016119b4565b613108565b61316c336007830161262c565b6130d6565b5061304361318d600161318660048690610ee4565b5001610c4b565b61319f613199336104cc565b916104cc565b14905061303a565b5f90565b6131b36131a7565b506131bd5f610c4b565b90565b6131d1906131cc613b85565b6132df565b6131d9613bea565b565b5f7f4e6f7420746865206163636570746f7200000000000000000000000000000000910152565b61320f6010602092610847565b613218816131db565b0190565b6132319060208101905f818303910152613202565b90565b1561323b57565b613243610181565b62461bcd60e51b8152806132596004820161321c565b0390fd5b5f7f5472616e73616374696f6e206e6f742070656e64696e67000000000000000000910152565b6132916017602092610847565b61329a8161325d565b0190565b6132b39060208101905f818303910152613284565b90565b156132bd57565b6132c5610181565b62461bcd60e51b8152806132db6004820161329e565b0390fd5b613304816132fe6132f86132f36004610ed7565b61030d565b9161030d565b10612e12565b61333761331f600161331860048590610ee4565b5001610c4b565b61333161332b336104cc565b916104cc565b14613234565b61336a613352600761334b60048590610ee4565b5001610f26565b61336461335e5f610ff8565b91610ff8565b146132b6565b61337c613377600261156a565b610919565b9060206323b872dd9233906133b45f61339430611577565b966133bf6133a061122d565b6133a8610181565b998a9788968795611583565b8552600485016115b6565b03925af191821561345457613424926133df915f91613426575b506124fd565b61340e6133ea61122d565b6134086133f960063390610550565b9161340383610d6b565b612526565b906119b4565b600761341d6001926004610ee4565b50016125ef565b565b613447915060203d811161344d575b61343f81836101b5565b810190611598565b5f6133d9565b503d613435565b6115e8565b613462906131c0565b565b9061347691613471613e58565b6136c9565b565b5f7f4e6f74206177616974696e6720766572696669636174696f6e00000000000000910152565b6134ac6019602092610847565b6134b581613478565b0190565b6134ce9060208101905f81830391015261349f565b90565b156134d857565b6134e0610181565b62461bcd60e51b8152806134f6600482016134b9565b0390fd5b60207f7274790000000000000000000000000000000000000000000000000000000000917f4d697373696e6720636f6e6669726d6174696f6e2066726f6d206f6e652070615f8201520152565b6135546023604092610847565b61355d816134fa565b0190565b6135769060208101905f818303910152613547565b90565b1561358057565b613588610181565b62461bcd60e51b81528061359e60048201613561565b0390fd5b9160206135c39294936135bc60408201965f830190610b87565b01906105ac565b565b5f7f496e69746961746f72207472616e73666572206661696c656400000000000000910152565b6135f96019602092610847565b613602816135c5565b0190565b61361b9060208101905f8183039101526135ec565b90565b1561362557565b61362d610181565b62461bcd60e51b81528061364360048201613606565b0390fd5b5f7f4163636570746f72207472616e73666572206661696c65640000000000000000910152565b61367b6018602092610847565b61368481613647565b0190565b61369d9060208101905f81830391015261366e565b90565b156136a757565b6136af610181565b62461bcd60e51b8152806136c560048201613688565b0390fd5b906136ef826136e96136e36136de6004610ed7565b61030d565b9161030d565b10612e12565b61372361370a600761370360048690610ee4565b5001610f26565b61371d6137176001610ff8565b91610ff8565b146134d1565b61373a6004613733818590610ee4565b5001610d6b565b61374c6137465f6113e6565b9161030d565b1180613a80575b61375c90613579565b61377161376b60048490610ee4565b50612fe0565b905f14613a335761379161378361122d565b61378b611136565b90611b15565b906137ab61379d61122d565b6137a5611136565b90611b15565b916137b860078301610f47565b6137d46137ce6137c95f8601610c4b565b6104cc565b916104cc565b145f146139e6576137ed906137e76112d6565b90612526565b5b6138276137f961122d565b613821613812600661380c5f8801610c4b565b90610550565b9161381c83610d6b565b611b15565b906119b4565b61386161383261122d565b61385b61384c600661384660018801610c4b565b90610550565b9161385683610d6b565b611b15565b906119b4565b6020613875613870600261156a565b610919565b9163a9059cbb926138a45f61388b818801610c4b565b93956138af613898610181565b97889687958694611583565b8452600484016135a2565b03925af180156139e1576138ca915f916139b3575b5061361e565b60206138de6138d9600261156a565b610919565b9263a9059cbb9361390e5f6138f560018701610c4b565b9396613919613902610181565b98899687958694611583565b8452600484016135a2565b03925af19182156139ae5761394492613939915f91613980575b506136a0565b6007600291016125ef565b61397a7f161186077e0cdfa49fae16d54ce01ea091439dbf14243419593fa6c051c906c891613971610181565b918291826105b9565b0390a15b565b6139a1915060203d81116139a7575b61399981836101b5565b810190611598565b5f613933565b503d61398f565b6115e8565b6139d4915060203d81116139da575b6139cc81836101b5565b810190611598565b5f6138c4565b503d6139c2565b6115e8565b6139f260078301610f47565b613a0f613a09613a0460018601610c4b565b6104cc565b916104cc565b14613a1a575b6137ee565b91613a2d90613a276112d6565b90612526565b91613a15565b613a42906007600391016125ef565b613a787f61e60550bebc2b32282d4baacb9094d9c194d45912cea3e6b10440d24bf5d0fa91613a6f610181565b918291826105b9565b0390a161397e565b5061375c613a9c6005613a9560048690610ee4565b5001610d6b565b613aae613aa85f6113e6565b9161030d565b119050613753565b90613ac091613464565b565b606090565b613ad0906107fa565b90565b613adb613ac2565b50613ae66007613ac7565b90565b613afa90613af5613e58565b613afc565b565b80613b17613b11613b0c5f612567565b6104cc565b916104cc565b14613b2757613b2590613ea6565b565b613b4a613b335f612567565b5f918291631e4fbdf760e01b835260048301610b94565b0390fd5b613b5790613ae9565b565b90565b613b70613b6b613b7592613b59565b610519565b61030d565b90565b613b826002613b5c565b90565b613b8f6001610d6b565b613ba8613ba2613b9d613b78565b61030d565b9161030d565b14613bc157613bbf613bb8613b78565b60016119b4565b565b5f633ee5aeb560e01b815280613bd960048201610386565b0390fd5b613be76001611af9565b90565b613bfc613bf5613bdd565b60016119b4565b565b5f90565b5f90565b613c0e610d12565b9060208083613c1b613bfe565b815201613c26613c02565b81525050565b613c34613c06565b90565b90565b5f7f4e6f206d61746368696e6720636f6666656520666f756e640000000000000000910152565b613c6e6018602092610847565b613c7781613c3a565b0190565b613c909060208101905f818303910152613c61565b90565b90613caa613cb091613ca3613c2c565b50836116c7565b50613c37565b90613cba5f6113e6565b5b80613cd6613cd0613ccb856116c3565b61030d565b9161030d565b1015613e3657613cf25f613ceb8484906116c7565b5001610c4b565b613d04613cfe866104cc565b916104cc565b1480613e19575b613d1e575b613d1990611d0f565b613cbb565b9192613d295f6113e6565b5b80613d48613d42613d3d60028901611836565b61030d565b9161030d565b1015613e1157613d675f6001613d5f8688906116c7565b500101610c72565b613d91613d8b613d865f613d7f60028b018790611d1e565b5001610c72565b610ca2565b91610ca2565b1480613dc7575b613daa57613da590611d0f565b613d2a565b5050613dc49250600191613dbd916116c7565b5001612581565b90565b50613de15f6001613dd98688906116c7565b500101610cdc565b613e0b613e05613e005f613df960028b018790611d1e565b5001610cdc565b610cf8565b91610cf8565b14613d98565b509291613d10565b50613e316005613e2a8484906116c7565b5001610d8c565b613d0b565b613e3e610181565b62461bcd60e51b815280613e5460048201613c7b565b0390fd5b613e606131ab565b613e79613e73613e6e613f05565b6104cc565b916104cc565b03613e8057565b613ea2613e8b613f05565b5f91829163118cdaa760e01b835260048301610b94565b0390fd5b613eaf5f610c4b565b613eb9825f61171f565b90613eed613ee77f8be0079c531659141344cd1fd0a4f28419497f9722a3daafe3b4186f6b6457e093610544565b91610544565b91613ef6610181565b80613f0081610386565b0390a3565b613f0d6131a7565b50339056fea264697066735822122041ce82b1fe807875fdb1e815ecea13f418837f1e0e825a7624d80a78b25eec6064736f6c634300081c0033","linkReferences":{}},"methodIdentifiers":{"REQUIRED_DEPOSIT()":"be64b76b","REWARD_AMOUNT()":"cf849442","TRANSACTION_FEE()":"b1b23535","acceptTransaction(uint256)":"a9dd6895","confirmTransfer(uint256,uint256)":"79b48b0e","createPost((uint8,uint8),(uint8,uint8)[],uint256)":"00511fcd","cstToken()":"3f1e3377","getActivePostIds()":"156b34a4","getMatchingPosts((uint8,uint8),(uint8,uint8))":"06932b68","getPublicAccountPhone()":"c8b0e27b","initiateTransaction(uint256)":"3fd2007d","owner()":"8da5cb5b","publicAccountPhone()":"285fdf79","registerUser()":"4d3820eb","registeredUsers(address)":"0e50cee5","renounceOwnership()":"715018a6","swapPosts(uint256)":"8dd3bb21","transactions(uint256)":"9ace38c2","transferOwnership(address)":"f2fde38b","updatePublicAccountPhone(string)":"66a545c3","userDeposits(address)":"0ba36dcd","verifyTransaction(uint256,bool)":"bd8e99bd"},"id":22}